{"src/IncrementOracle.sol":{"IncrementOracle":{"abi":[{"inputs":[],"name":"getIncrement","outputs":[{"internalType":"uint256","name":"","type":"uint256"}],"stateMutability":"pure","type":"function"}],"devdoc":{"kind":"dev","methods":{},"version":1},"evm":{"bytecode":{"linkReferences":{},"object":"60826037600b82828239805160001a607314602a57634e487b7160e01b600052600060045260246000fd5b30600052607381538281f3fe730000000000000000000000000000000000000000301460806040526004361060335760003560e01c80636ac4691f146038575b600080fd5b600160405190815260200160405180910390f3fea2646970667358221220cf0de51dd6dc5b5e0ea8d8bb1b1d6caef8092e6a0c89a6ccf8dfa67fc36897c764736f6c634300081c0033","opcodes":"PUSH1 0x82 PUSH1 0x37 PUSH1 0xB DUP3 DUP3 DUP3 CODECOPY DUP1 MLOAD PUSH1 0x0 BYTE PUSH1 0x73 EQ PUSH1 0x2A JUMPI PUSH4 0x4E487B71 PUSH1 0xE0 SHL PUSH1 0x0 MSTORE PUSH1 0x0 PUSH1 0x4 MSTORE PUSH1 0x24 PUSH1 0x0 REVERT JUMPDEST ADDRESS PUSH1 0x0 MSTORE PUSH1 0x73 DUP2 MSTORE8 DUP3 DUP2 RETURN INVALID PUSH20 0x0 ADDRESS EQ PUSH1 0x80 PUSH1 0x40 MSTORE PUSH1 0x4 CALLDATASIZE LT PUSH1 0x33 JUMPI PUSH1 0x0 CALLDATALOAD PUSH1 0xE0 SHR DUP1 PUSH4 0x6AC4691F EQ PUSH1 0x38 JUMPI JUMPDEST PUSH1 0x0 DUP1 REVERT JUMPDEST PUSH1 0x1 PUSH1 0x40 MLOAD SWAP1 DUP2 MSTORE PUSH1 0x20 ADD PUSH1 0x40 MLOAD DUP1 SWAP2 SUB SWAP1 RETURN INVALID LOG2 PUSH5 0x6970667358 0x22 SLT KECCAK256 0xCF 0xD 0xE5 SAR 0xD6 0xDC JUMPDEST MCOPY 0xE 0xA8 0xD8 0xBB SHL SAR PUSH13 0xAEF8092E6A0C89A6CCF8DFA67F 0xC3 PUSH9 0x97C764736F6C634300 ADDMOD SHR STOP CALLER "},"gasEstimates":{"creation":{"codeDepositCost":"26000","executionCost":"112","totalCost":"26112"},"external":{"getIncrement()":"130"}},"methodIdentifiers":{"getIncrement()":"6ac4691f"}},"storageLayout":{"storage":[],"types":null},"userdoc":{"kind":"user","methods":{},"version":1}}}}